:100000000C9472000C94B5000C9493000C94930023
:100010000C9493000C9493000C9493000C94930014
:100020000C9493000C9493000C9493000C94930004
:100030000C9493000C9493000C9493000C949300F4
:100040000C9493000C9493000C9493000C949300E4
:100050000C9493000C9493000C9493000C949300D4
:100060000C9493000C9493000C9493000C949300C4
:100070000C9493000C9493000C9493000C949300B4
:100080000C9493000C9493000C9493000C949300A4
:100090000C9493000C9493000C9493000C94930094
:1000A0000C9493000C9493000C9493000C94930084
:1000B0000C9493000C9493000C9493000C94930074
:1000C0000C9493000C9493000C9493000C94930064
:1000D0000C9493000C9493000C9493000C94930054
:1000E0000C94930011241FBECFEFD1E2DEBFCDBF31
:1000F00000E00CBF12E0A0E0B2E0EAE6F4E000E0CD
:100100000BBF02C007900D92A030B107D9F712E0E3
:10011000A0E0B2E001C01D92A031B107E1F70E945A
:100120005E010C9433020C940000E1E0F1E0808168
:1001300080678083E2E0F1E080818FEF8083089523
:100140008AB11AB88AB18E6F8AB9589A84B1806F11
:1001500084B985B115B80895F894E9E6F0E0808196
:1001600082608083E89A789408951F920F920FB668
:100170000F9211248F939F93AF93BF9380910002AE
:1001800090910102A0910202B09103020196A11D7B
:10019000B11D8093000290930102A0930202B093DC
:1001A0000302BF91AF919F918F910F900FBE0F905F
:1001B0001F901895F8940E9495000E94A0000E943C
:1001C000AC00789408952E982F9808952E9A2F9A1F
:1001D00008952E982F9A08952E9A2F9808952C9A64
:1001E0002D9A08950E94E3001092000210920102DD
:1001F00010920202109203028FEF91EEA4E0815060
:100200009040A040E1F700C0000080910002909172
:100210000102A0910202B091030280930C0290931C
:100220000D02A0930E02B0930F0208950E94E60003
:100230001092000210920102109202021092030228
:100240008FEF91EEA4E081509040A040E1F700C014
:1002500000008091000290910102A0910202B091F1
:1002600003028093080290930902A0930A02B093BC
:100270000B0208950E94E900109200021092010200
:1002800010920202109203028FEF91EEA4E08150CF
:100290009040A040E1F700C00000809100029091E2
:1002A0000102A0910202B091030280930402909394
:1002B0000502A0930602B093070208950E94DA0097
:1002C0000E94EF00C2E0D1E01FEF0E94F2000E9406
:1002D00016010E943A0180910C0290910D02A091AA
:1002E0000E02B0910F028C3D25E0920720E0A2079C
:1002F00020E0B20730F58091080290910902A091A8
:100300000A02B0910B028C3D25E0920720E0A20783
:1003100020E0B207B0F48091040290910502A09110
:100320000602B09107028C3D25E0920720E0A2076B
:1003300020E0B20730F48881188388818F78888321
:10034000C4CF40910C0250910D0260910E02709149
:100350000F028091080290910902A0910A02B091C7
:100360000B0284179507A607B707D8F440910C0233
:1003700050910D0260910E0270910F028091040263
:1003800090910502A0910602B0910702841795078B
:10039000A607B70730F48881188388818F7E888309
:1003A00094CF409108025091090260910A02709125
:1003B0000B028091040290910502A0910602B09177
:1003C000070284179507A607B707D8F440910802DB
:1003D0005091090260910A0270910B0280910C0207
:1003E00090910D02A0910E02B0910F028417950713
:1003F000A607B70730F48881188388818F7D8883AA
:1004000064CF409104025091050260910602709100
:10041000070280910C0290910D02A0910E02B09102
:100420000F0284179507A607B70708F04ECF409133
:1004300004025091050260910602709107028091BA
:10044000080290910902A0910A02B0910B02841750
:100450009507A607B70708F038CF888118838881E9
:0A0460008F7B888332CFF894FFCF22
:00000001FF
