:100000000C9472000C9493000C9493000C94930045
:100010000C9493000C9493000C9493000C94930014
:100020000C9493000C9493000C9493000C94930004
:100030000C9493000C9493000C9493000C949300F4
:100040000C9493000C9493000C9493000C949300E4
:100050000C9493000C9493000C9493000C949300D4
:100060000C9493000C9493000C9493000C949300C4
:100070000C9493000C9493000C9493000C949300B4
:100080000C9493000C9493000C9493000C949300A4
:100090000C9493000C9493000C9493000C94930094
:1000A0000C9493000C9493000C9493000C94930084
:1000B0000C9493000C9493000C9493000C94930074
:1000C0000C9493000C9493000C9493000C94930064
:1000D0000C9493000C9493000C9493000C94930054
:1000E0000C94930011241FBECFEFD1E2DEBFCDBF31
:1000F00000E00CBF12E0A0E0B2E0E4EEF6E000E0C9
:100100000BBF02C007900D92A630B107D9F712E0DD
:10011000A6E0B2E001C01D92AF31B107E1F70E9445
:10012000BB020C9470030C94000086E69EE00197DD
:10013000F1F700004098419880E388B9429AEFEFC8
:10014000F7E43197F1F700C000004298E6E6FEE0E0
:100150003197F1F700004098419888B9429AEFEF43
:10016000F7E43197F1F700C000004298E6E6FEE0C0
:100170003197F1F700004098419888B9429A8FEF83
:1001800097E40197F1F700C000004298E6E6FEE030
:100190003197F1F700004098419880E288B9429A7F
:1001A0008FEF97E40197F1F700C00000429808959F
:1001B00098B19F7098B998B1282F207F922B98B949
:1001C00040984198429AEFEFF7E43197F1F700C079
:1001D0000000429898B19F7098B998B18295807F3D
:1001E000892B88B940984198429A8FEF97E40197FC
:1001F000F1F700C00000429808950E94950086E63D
:100200009EE00197F1F7000088E20E94D80081E0AB
:100210000E94D80086E00E94D8008EE00E94D8009C
:1002200080E80E94D800089598B19F7098B998B15D
:10023000282F207F922B98B9409A4198429AEFEF4D
:10024000F7E43197F1F700C00000429898B19F7031
:1002500098B998B18295807F892B88B9409A419846
:10026000429A8FEF97E40197F1F700C0000042989F
:10027000089580E80E94D8000895CF93DF93EC01A1
:100280008881882331F021960E9414018991882366
:10029000D9F7DF91CF910895823079F0833018F447
:1002A0008130C9F405C0833069F08430A1F40FC0F7
:1002B000862F81580E94D8000895862F81540E946D
:1002C000D8000895862F8D560E94D8000895862F55
:1002D0008D520E94D80008950F931F93CF93DF9300
:1002E0008A01E901882311F0662319F40E9439017B
:1002F00002C00E944C01C530D10571F4C80160E113
:1003000077E20E945C03CB01C09690930B0280932E
:100310000A020E94140103C0C430D105B9F4C80117
:1003200068EE73E00E945C03CB017093110260934E
:1003300010026AE070E00E945C03C09690931E0277
:1003400080931D020E94140181E001C080E0C3304F
:10035000D10511F08130B1F4C80164E670E00E946B
:100360005C03CB0170931102609310026AE070E0AD
:100370000E945C03C09690931A02809319020E9417
:10038000140181E0C230D10511F08130B1F42AE0CE
:1003900030E0C801B9010E945C03CB0170931102E7
:1003A00060931002B9010E945C03C09690931802FA
:1003B000809317020E94140181E0C130D10511F031
:1003C000813061F4C8016AE070E00E945C03C0966D
:1003D00090931C0280931B020E941401C630D10529
:1003E0001CF085E40E941401DF91CF911F910F91C1
:1003F000089587B18FEF87B988B1807888B908955B
:10040000883018F098E090937B00ECE7F0E0908162
:100410008770987F892B8083EAE7F0E08081806491
:100420008083808184FFFDCF80917900EAE7F0E04E
:1004300090819061908310927B000895CF93DF9319
:10044000D82FC62F842F0E940002482F80931202BB
:100450008D2F6C2F50E023E030E00E946C01DF9183
:10046000CF91089580E680937C008FE880937A0096
:1004700081E080937E00089581B18F6081B982B15F
:10048000807F82B9EAE0F1E0808188618083EBE0DF
:10049000F1E08081886180830895E1E2F1E01082DB
:1004A0008FEF8093250191E0909324011092290110
:1004B0008093280110922B0180932A0110922D0124
:1004C00080932C0189EA809320018BE0808308953A
:1004D0008093280160932A01089592B1907F8F70D4
:1004E000982B92B9089586E00E946D02089580E0ED
:1004F0000E946D02089589E00E946D02089584E0D3
:100500000E946D02089582E00E946D02089585E0C8
:100510000E946D0208958AE00E946D0208958AE5A6
:1005200068E70E9468020E948B028FEF9FE7A6E1B6
:1005300081509040A040E1F700C0000082E00E949E
:1005400000028093080282E065E042E00E941E0201
:1005500082E00E940002809308028F30C8F30E945C
:1005600077028FEF9FEFACE281509040A040E1F71F
:1005700000C000000895F8940E943C020E944D02C1
:100580000E94F9010E9432020E94FD0081E061E0B8
:100590000E944C0180E092E00E943D0181E066E013
:1005A0000E944C0182E092E00E943D0181E06AE0FD
:1005B0000E944C0184E092E00E943D0183E00E9491
:1005C00000028093090282E00E94000280930802E8
:1005D00081E00E940002809307021092060282E0EE
:1005E00061E043E00E941E0282E065E042E00E947A
:1005F0001E0282E069E041E00E941E028091080232
:10060000833348F081E0809306020E94730282E8FF
:100610006CE80E946802809109028D3050F0809150
:100620000602882331F40E9473028EE660EA0E947B
:100630006802809107028D3050F080910602882375
:1006400031F40E94730286E96EE60E94680280918E
:1006500008028C37A8F0809109028D3020F4809137
:1006600007028D3068F00E9477028FEF9FEFA9E5B7
:1006700081509040A040E1F700C000000E948F022E
:10068000809107028C3728F4809109028C3708F496
:1006900095CF809108028D3008F490CF0E947702A8
:1006A0008FEF9FEFA9E581509040A040E1F700C097
:1006B00000000E948F0282CFAA1BBB1B51E107C022
:1006C000AA1FBB1FA617B70710F0A61BB70B881FE2
:1006D000991F5A95A9F780959095BC01CD01089571
:0406E000F894FFCFBC
:0606E4004C004D00520025
:00000001FF
