:100000000C9472000C941B020C9493000C949300BB
:100010000C9493000C9493000C9493000C94930014
:100020000C9493000C9493000C9493000C94930004
:100030000C9493000C9493000C9493000C949300F4
:100040000C9493000C9493000C9493000C949300E4
:100050000C9493000C9493000C9493000C949300D4
:100060000C9493000C9493000C9493000C949300C4
:100070000C9493000C9493000C9493000C949300B4
:100080000C9493000C9493000C9493000C949300A4
:100090000C9493000C9493000C9493000C94930094
:1000A0000C9493000C9493000C9493000C94930084
:1000B0000C9493000C9493000C9493000C94930074
:1000C0000C9493000C9493000C9493000C94930064
:1000D0000C9493000C9493000C9493000C94930054
:1000E0000C94930011241FBECFEFD1E2DEBFCDBF31
:1000F00000E00CBF12E0A0E0B2E0EEE6F6E000E0C7
:100100000BBF02C007900D92A231B107D9F712E0E0
:10011000A2E1B2E001C01D92AE32B107E1F70E9448
:10012000C6020C9435030C94000086E69EE001970D
:10013000F1F700004098419880E388B9429AEFEFC8
:10014000F7E43197F1F700C000004298E6E6FEE0E0
:100150003197F1F700004098419888B9429AEFEF43
:10016000F7E43197F1F700C000004298E6E6FEE0C0
:100170003197F1F700004098419888B9429A8FEF83
:1001800097E40197F1F700C000004298E6E6FEE030
:100190003197F1F700004098419880E288B9429A7F
:1001A0008FEF97E40197F1F700C00000429808959F
:1001B00098B19F7098B998B1282F207F922B98B949
:1001C00040984198429AEFEFF7E43197F1F700C079
:1001D0000000429898B19F7098B998B18295807F3D
:1001E000892B88B940984198429A8FEF97E40197FC
:1001F000F1F700C00000429808950E94950086E63D
:100200009EE00197F1F7000088E20E94D80081E0AB
:100210000E94D80086E00E94D8008EE00E94D8009C
:1002200080E80E94D800089598B19F7098B998B15D
:10023000282F207F922B98B9409A4198429AEFEF4D
:10024000F7E43197F1F700C00000429898B19F7031
:1002500098B998B18295807F892B88B9409A419846
:10026000429A8FEF97E40197F1F700C0000042989F
:10027000089580E80E94D8000895CF93DF93EC01A1
:100280008881882331F021960E9414018991882366
:10029000D9F7DF91CF910895823079F0833018F447
:1002A0008130C9F405C0833069F08430A1F40FC0F7
:1002B000862F81580E94D8000895862F81540E946D
:1002C000D8000895862F8D560E94D8000895862F55
:1002D0008D520E94D80008950F931F93CF93DF9300
:1002E0008A01E901882311F0662319F40E9439017B
:1002F00002C00E944C01C530D10571F4C80160E113
:1003000077E20E942103CB01C09690931B02809359
:100310001A020E94140103C0C430D105B9F4C80107
:1003200068EE73E00E942103CB0170931D0260937D
:100330001C026AE070E00E942103C09690932D0297
:1003400080932C020E94140181E001C080E0C33040
:10035000D10511F08130B1F4C80164E670E00E946B
:100360002103CB0170931D0260931C026AE070E0D0
:100370000E942103C09690932902809328020E9434
:10038000140181E0C230D10511F08130B1F42AE0CE
:1003900030E0C801B9010E942103CB0170931D0216
:1003A00060931C02B9010E942103C096909327021A
:1003B000809326020E94140181E0C130D10511F022
:1003C000813061F4C8016AE070E00E942103C096A8
:1003D00090932B0280932A020E941401C630D1050B
:1003E0001CF085E40E941401DF91CF911F910F91C1
:1003F000089587B1876F87B988B1807888B90895E3
:1004000084B18FEF84B995B185B908958AB11AB8CE
:100410008AB18E6F8AB9589A84B1806F84B985B1D8
:1004200015B80895F894E9E6F0E080818260808351
:10043000E89A789408951F920F920FB60F921124A4
:100440008F939F93AF93BF93809112029091130269
:10045000A0911402B09115020196A11DB11D8093C7
:10046000120290931302A0931402B0931502BF914D
:10047000AF919F918F910F900FBE0F901F90189585
:10048000F8940E94F9010E94FD000E9406020E9459
:100490001202789408952E982F9808952E9A2F9AE4
:1004A00008952E982F9A08952E9A2F9808952C9A91
:1004B0002D9A08950E944B0210921202109213027C
:1004C00010921402109215028FEF9FE7A4E0815062
:1004D0009040A040E1F700C000008091120290918E
:1004E0001302A0911402B0911502809322029093FE
:1004F0002302A0932402B093250208950E944E0285
:10050000109212021092130210921402109215020D
:100510008FEF9FE7A4E081509040A040E1F700C03A
:1005200000008091120290911302A0911402B091E8
:10053000150280931E0290931F02A0932002B09395
:10054000210208950E945102109212021092130289
:1005500010921402109215028FEF9FE7A4E08150D1
:100560009040A040E1F700C00000809112029091FD
:100570001302A0911402B091150280931602909379
:100580001702A0931802B093190208950E94400226
:100590000E945702C0E0D2E00F2EF5E0EF2EF2E00D
:1005A000FF2EF02D0F2EFCE0CF2EF2E0DF2EF02DEF
:1005B0000E945A0281E061E00E944C01CE010E943B
:1005C0003D010091220210912302209124023091DA
:1005D000250282E061E0A80126E030E00E946C0183
:1005E0000E947E0281E061E00E944C01C7010E94EE
:1005F0003D0100911E0210911F02209120023091B6
:10060000210282E061E0A80126E030E00E946C0156
:100610000E94A20281E061E00E944C01C6010E949A
:100620003D0100911602109117022091180230919D
:10063000190282E061E0A80126E030E00E946C012E
:10064000B7CFAA1BBB1B51E107C0AA1FBB1FA61730
:10065000B70710F0A61BB70B881F991F5A95A9F76B
:0E06600080959095BC01CD010895F894FFCFD0
:10066E005265643A00477265656E3A00426C756574
:02067E003A0040
:00000001FF
