:100000000C94B3000C947C020C94D4000C94D40097
:100010000C94D4000C94D4000C94D4000C94D40010
:100020000C94D4000C94D4000C94D4000C94D40000
:100030000C94D4000C94D4000C94D4000C94D400F0
:100040000C94D4000C94D4000C94D4000C94D400E0
:100050000C94D4000C94D4000C94D4000C94D400D0
:100060000C94D4000C94D4000C94D4000C94D400C0
:100070000C94D4000C94D4000C94D4000C94D400B0
:100080000C94D4000C94D4000C94D4000C94D400A0
:100090000C94D4000C94D4000C94D4000C94D40090
:1000A0000C94D4000C94D4000C94D4000C94D40080
:1000B0000C94D4000C94D4000C94D4000C94D40070
:1000C0000C94D4000C94D4000C94D4000C94D40060
:1000D0000C94D4000C94D4000C94D4000C94D40050
:1000E0000C94D40007634236B79BD8A71A396856D8
:1000F00018AEBAAB558C1D3CB7CC5763BD6DEDFD4A
:10010000753EF6177231BF000000803F0800000006
:10011000BE922449123EABAAAA2ABECDCCCC4C3EFC
:1001200000000080BEABAAAAAA3E00000000BF00EB
:100130000000803F0000000000084178D3BB4387E7
:10014000D1133D190E3CC3BD4282AD2B3E68EC82FB
:1001500076BED98FE1A93E4C80EFFFBE01C4FF7F80
:100160003F000000000011241FBECFEFD1E2DEBF30
:10017000CDBF00E00CBF12E0A0E0B2E0E8E0F4E5A3
:1001800000E00BBF02C007900D92AC32B107D9F767
:1001900019E0ACE2B2E001C01D92A439B107E1F769
:1001A0000E94BB230C94022A0C94000084B18F603F
:1001B00084B985B18F6085B9089586E69EE0019780
:1001C000F1F700004098419880E388B9429AEFEF38
:1001D000F7E43197F1F700C000004298E6E6FEE050
:1001E0003197F1F700004098419888B9429AEFEFB3
:1001F000F7E43197F1F700C000004298E6E6FEE030
:100200003197F1F700004098419888B9429A8FEFF2
:1002100097E40197F1F700C000004298E6E6FEE09F
:100220003197F1F700004098419880E288B9429AEE
:100230008FEF97E40197F1F700C00000429808950E
:1002400098B19F7098B998B1282F207F922B98B9B8
:1002500040984198429AEFEFF7E43197F1F700C0E8
:100260000000429898B19F7098B998B18295807FAC
:10027000892B88B940984198429A8FEF97E401976B
:10028000F1F700C00000429808950E94DD0086E664
:100290009EE00197F1F7000088E20E94200181E0D2
:1002A0000E94200186E00E9420018EE00E94200131
:1002B00080E80E942001089598B19F7098B998B184
:1002C000282F207F922B98B9409A4198429AEFEFBD
:1002D000F7E43197F1F700C00000429898B19F70A1
:1002E00098B998B18295807F892B88B9409A4198B6
:1002F000429A8FEF97E40197F1F700C0000042980F
:10030000089580E80E9420010895CF93DF93EC01C7
:100310008881882331F021960E945C01899188238D
:10032000D9F7DF91CF910895823079F0833018F4B6
:100330008130C9F405C0833069F08430A1F40FC066
:10034000862F81580E9420010895862F81540E9493
:1003500020010895862F8D560E9420010895862F32
:100360008D520E94200108950F931F93CF93DF9326
:100370008A01E901882311F0662319F40E948101A2
:1003800002C00E949401C530D10571F4C80160E13A
:1003900077E20E942E27CB01C0969093670280934C
:1003A00066020E945C0103C0C430D105B9F4C801E3
:1003B00068EE73E00E942E27CB0170936B0260936E
:1003C0006A026AE070E00E942E27C09690938D0921
:1003D00080938C090E945C0181E001C080E0C33001
:1003E000D10511F08130B1F4C80164E670E00E94DB
:1003F0002E27CB0170936B0260936A026AE070E073
:100400000E942E27C09690938909809388090E94A4
:100410005C0181E0C230D10511F08130B1F42AE0F5
:1004200030E0C801B9010E942E27CB0170936B0206
:1004300060936A02B9010E942E27C09690938509A5
:10044000809384090E945C0181E0C130D10511F0E4
:10045000813061F4C8016AE070E00E942E27C096E6
:1004600090938B0980938A090E945C01C630D10564
:100470001CF085E40E945C01DF91CF911F910F91E8
:1004800008954091340281E061E050E023E030E0E3
:100490000E94B4014091330281E065E050E023E026
:1004A00030E00E94B4014091320281E069E050E006
:1004B00023E030E00E94B40140916E0250916F023F
:1004C00082E067E023E030E00E94B40108958AB141
:1004D0001AB88AB18E6F8AB9589A84B1806F84B97C
:1004E00085B115B80895F894E9E6F0E0808182605E
:1004F0008083E89A789408951F920F920FB60F9216
:1005000011248F939F93AF93BF9380913602909164
:100510003702A0913802B09139020196A11DB11D98
:100520008093360290933702A0933802B093390239
:10053000BF91AF919F918F910F900FBE0F901F9021
:1005400018952E982F9808952E9A2F9A08952E98E0
:100550002F9A08952E9A2F9808952C9A2D9A0895DF
:100560000E94A102109236021092370210923802B5
:10057000109239028FEF9FE7A4E081509040A04095
:10058000E1F700C000008091360290913702A091FF
:100590003802B09139028093740290937502A0934F
:1005A0007602B093770208950E94A4021092360258
:1005B0001092370210923802109239028FEF9FE7A3
:1005C000A4E081509040A040E1F700C0000080917D
:1005D000360290913702A0913802B091390280938F
:1005E000700290937102A0937202B0937302089507
:1005F0000E94A7021092360210923702109238021F
:10060000109239028FEF9FE7A4E081509040A04004
:10061000E1F700C000008091360290913702A0916E
:100620003802B09139028093620290936302A093E2
:100630006402B093650208950E94B0028FEF9FE7B5
:10064000A6E181509040A040E1F700C000000E9468
:10065000D4028FEF9FE7A6E181509040A040E1F7E0
:1006600000C000000E94F8028FEF9FE7A6E18150D2
:100670009040A040E1F700C000008091740290918A
:100680007502A0917602B0917702883027E0920738
:1006900020E0A20720E0B20728F580917002909137
:1006A0007102A0917202B0917302883027E0920724
:1006B00020E0A20720E0B207A8F4809162029091A6
:1006C0006302A0916402B0916502883027E092072E
:1006D00020E0A20720E0B20728F485B18F6085B939
:1006E00087E50895409174025091750260917602F9
:1006F000709177028091700290917102A0917202C4
:10070000B091730284179507A607B70738F5409193
:100710007402509175026091760270917702809117
:10072000620290916302A0916402B0916502841705
:100730009507A607B70790F485B18F6085B929980A
:100740008FEF9FEFA9E581509040A040E1F700C0F6
:10075000000085B18F6085B982E5089540917002EF
:1007600050917102609172027091730280916202E5
:1007700090916302A0916402B0916502841795077D
:10078000A607B70738F54091700250917102609149
:100790007202709173028091740290917502A0911F
:1007A0007602B091770284179507A607B70790F4F1
:1007B00085B18F6085B92B988FEF9FEFA9E58150A8
:1007C0009040A040E1F700C0000085B18F6085B97E
:1007D00087E408954091620250916302609164023F
:1007E000709165028091740290917502A0917602D9
:1007F000B091770284179507A607B70738F540919F
:10080000620250916302609164027091650280916E
:10081000700290917102A0917202B09173028417DC
:100820009507A607B707A0F485B18F6085B92A9808
:100830008FEF9FEFA9E581509040A040E1F700C005
:10084000000085B18F6085B982E4089587E5089539
:1008500087E508956C9A8EB18EB90895749A8FEFDA
:100860009FEFA6E881509040A040E1F700C0000053
:100870008EB11EB808958FE081B912B888E18093D7
:100880000A0110920B010895E1E0F1E08081886097
:100890008083E2E0F1E08081886080830895E1E078
:1008A000F1E0808180618083E2E0F1E0808180611D
:1008B0008083089587B18FEF87B988B1807888B930
:1008C0000895E7E0F1E08081108280B310BA0895C6
:1008D000E1EAF0E010828CEF8093A50081E0809344
:1008E000A40093E09093A9008FEF8093A8009093C9
:1008F000AB008093AA009093AD008093AC009093DE
:10090000A7008093A6008BEA8093A0001092A2001B
:100910008CE08083089589EA809320018BE08093A6
:1009200021018FEF8093250110922401109229015B
:100930008093280110922B0180932A0110922D019F
:1009400080932C010895EAE7F0E0108210927B007A
:1009500080E680937C0086E8808380E880BF0895ED
:10096000883018F098E090937B00ECE7F0E09081FD
:100970008770987F892B8083EAE7F0E0808180642C
:100980008083808184FFFDCF80917900EAE7F0E0E9
:1009900090819061908310927B00089581E00E9485
:1009A000B0048093320282E00E94B004809333024C
:1009B00083E00E94B004809334020895CF93DF93C4
:1009C000D82FC62F842F0E94B004482F8093350261
:1009D0008D2F6C2F50E023E030E00E94B401DF91B6
:1009E000CF9108950F931F93682F70E080E090E0FF
:1009F0000E94D8242FEE39EC43E95FE30E94C92519
:100A0000B62FA72F382F292F60E070E080E89FE3F2
:100A1000422F0B2F1A2F232F342FA90198010E9448
:100A20003F242AE939EF4EE255E40E94662520E092
:100A300030E040E251E40E9466250E94A724882706
:100A400077FD8095982F0E94DA240E94A724862F94
:100A5000972F23E08132920710F080E293E01F91FC
:100A60000F9108958093280160932A01089586E0EC
:100A700082B9089512B8089589E082B9089584E092
:100A800082B9089582E082B9089585E082B9089517
:100A90008AE082B908951092A900682F70E080E082
:100AA00090E00E94D8242BE734E14EEE5FE30E94F1
:100AB0003F2420E030E04CE052E40E94DB230E941F
:100AC000AC246093A80008951092AB00682F70E0EA
:100AD00080E090E00E94D8242BE734E14EEE5FE303
:100AE0000E943F2420E030E04CE052E40E94DB23EF
:100AF0000E94AC246093AA00089583E08093A9002B
:100B00008FEF8093A800089583E08093AB008FEF70
:100B10008093AA0008958BE90E944B058FEF9FEF09
:100B2000ACE281509040A040E1F700C000008AEDA7
:100B30000E9464058FEF9FEFACE281509040A0408F
:100B4000E1F700C000000E947D050E948405089521
:100B50000E94D6000E942A040E9467020E9473022B
:100B60000E94AD020E943B040E9444040E944F0474
:100B70000E945A040E9461040E9468040E948B042F
:100B80000E94A3040E94450185B18FEF85B90E94A0
:100B90008B050895CF93CAED8C2F0E9464058FEFCB
:100BA0009FE80197F1F700C00000C150C237A1F7DC
:100BB0000E9484058FEF9FE7A6E181509040A040FE
:100BC000E1F700C00000CAEA8C2F0E944B05AFEF8E
:100BD000BFE81197F1F700C00000C150C935A1F777
:100BE0000E947D058FEF9FE7A6E181509040A040D5
:100BF000E1F700C00000C3E78C2F0E946405AFEF4F
:100C0000BFE81197F1F700C00000CF5FCB3DA1F71F
:100C10008FEF9FE7A6E181509040A040E1F700C030
:100C20000000CAE58C2F0E944B05AFEFBFE811977B
:100C3000F1F700C00000CF5FCB3AA1F70E947D051D
:100C40000E948405CF910895CF93CAEA8C2F0E9409
:100C50004B058FEF9FE80197F1F700C00000C150EE
:100C6000C935A1F70E947D058FEF9FE7A6E181506E
:100C70009040A040E1F700C00000CAED8C2F0E9418
:100C80006405AFEFBFE81197F1F700C00000C15055
:100C9000C237A1F70E9484058FEF9FE7A6E181503C
:100CA0009040A040E1F700C00000CAE58C2F0E94F0
:100CB0004B05AFEFBFE81197F1F700C00000CF5F21
:100CC000CB3AA1F70E947D058FEF9FE7A6E1815007
:100CD0009040A040E1F700C00000C3E78C2F0E94C5
:100CE0006405AFEFBFE81197F1F700C00000CF5FD8
:100CF000CD3DA1F70E9484058FEF9FE7A6E18150CB
:100D00009040A040E1F700C00000CF910895FC01A1
:100D10008FEF9FEF95AF84AF97AF86AF0895FC013B
:100D200086AD97AD8D319105D1F02FEF8F3F9207B2
:100D300069F424AD35AD4FEF2F3F340739F415AECC
:100D400014AE17AE16AE718360830895019697AF07
:100D500086AF880F991FE80FF91F7183608308958C
:100D6000FC0126AD37AD8FEF2F3F380739F484AD46
:100D700095AD2FEF8F3F9207A9F420C084AD95ADBC
:100D80002817390779F4D901AA0FBB1FAE0FBF1F6F
:100D90002D913C9111978FEF9FEF95AF84AF97AF57
:100DA00086AF0EC0DC01AA0FBB1FAE0FBF1F2D9177
:100DB0003C911197019695AF84AF02C02FEF3FEFA2
:100DC000822F932F0895FC0186AD97AD2FEF8F3FB3
:100DD000920759F481E090E024AD35AD4FEF2F3FFD
:100DE000340729F080E090E0089580E090E00895D5
:100DF0009C01181619066CF01DC0119211920196F3
:100E000082179307D1F74F5F5F4F4217530739F4AB
:100E100011C040E050E06CE370E0A0E0B0E0469F1D
:100E2000F001479FF00D569FF00D1124E658FD4F3D
:100E3000CD01E3CF81E090E090937F0280937E022A
:100E40009093F9028093F8029093FB028093FA0248
:100E500090930F0380930E03909375038093740314
:100E60009093E1058093E0059093B3038093B203E0
:100E700090931F0680931E069093F1038093F003D6
:100E800090935D0680935C0690932F0480932E04CC
:100E900090939B0680939A0690937D0380937C03A6
:100EA0009093E9058093E8059093AB048093AA049E
:100EB000909317078093160790933304809332041E
:100EC00090939F0680939E0690931B0780931A072A
:100ED0009093AF048093AE049093ED048093EC0460
:100EE0009093590780935807909345038093440348
:100EF000909327058093260590936505809364055C
:100F0000909359038093580390939307809392078B
:100F10009093D1078093D0079093010680930006A9
:100F20009093A9038093A8039093E7028093E6022D
:100F300090934D0880934C0890938B0880938A0877
:100F400090938D0880938C089093F3028093F20223
:100F5000909333038093320390936F0380936E03D7
:100F60009093C7058093C6059093AF038093AE031B
:100F700090931B0680931A069093ED038093EC03E5
:100F8000909359068093580690932B0480932A04DB
:100F900090939706809396069093690480936804D3
:100FA0009093D5068093D40690939F0480939E04DB
:100FB00090930B0780930A079093E5048093E404D1
:100FC00090935107809350079093E1048093E0043D
:100FD00090934D0780934C079093C9078093C8075F
:100FE00090935D0580935C0590939B0580939A0593
:100FF0009093070880930608909315058093140535
:10100000909361058093600590939F0580939E0562
:1010100090936D0780936C079093CD078093CC07D6
:1010200090930B0880930A089093D5028093D40282
:101030009093C1028093C00290931D0880931C0876
:1010400090938708809386089093C5088093C4087E
:10105000909301098093000908952F923F924F9237
:101060005F926F927F928F929F92AF92BF92CF9238
:10107000DF92EF92FF920F931F93CF93DF93CDB741
:10108000DEB7C65CD0400FB6F894DEBF0FBECDBF52
:10109000CD53DF4F99838883C35CD040CB53DF4F60
:1010A0006883C55CD040CA53DF4F7883C65CD040AC
:1010B000CE0189960E9487068E010B551F4F0F2E79
:1010C000F9E6EF2EFF24F02DEC0EFD1EC8014C9624
:1010D000D701F80147E72FEF3FEF41932D933D9361
:1010E000E817F907D1F7E5EAF0E0EC0FFD1FCD5363
:1010F000DF4F28813981C35CD040E20FF31F87E6C0
:101100008083F901EE0FFF1F89E690E08C0F9D1F91
:10111000E80FF91F31832083CE018996B9010E941F
:101120008F066E2C5F2C402E312E0F2EF7E67F2E71
:10113000F02D0F2EF2E62F2EF02D43C0CE01899612
:101140000E94B0064C01ACE3B0E08A9EC0018B9EC9
:10115000900D9A9E900D11240F2EFAE7AF2EF2E01B
:10116000BF2EF02DA80EB91EC62CD52CE42CF32CC6
:1011700000E010E0F501819191915F0181309105CE
:1011800069F4D7018C91873749F47C92F6019182FA
:101190008082CE018996B8010E948F060F5F1F4F93
:1011A0000894E11CF11C22E030E0C20ED31E0C3189
:1011B000110501F7E5EAF0E0EC0FFD1FE80DF91D60
:1011C0002082CE0189960E94E306009709F4B6CFEB
:1011D000CB53DF4F3881C55CD04030933A02CA53BD
:1011E000DF4F8881C65CD04080933B0281E090E075
:1011F00090937902809378024CE352E0DA01832FD6
:10120000CA53DF4F9881C65CD04021E030E001C076
:101210009B01FC01EE0FFF1F89E690E08C0F9D1FE4
:10122000E80FF91F808191818D939D93B9016F5FC4
:101230007F4FCD53DF4FE881F981C35CD040E81781
:10124000F90731F76093780270937902332384F0C1
:10125000F901EE0FFF1FE45CFD4FDE0111962AE35A
:1012600032E0929182918D939D93E217F307C9F733
:101270008FEF9FEF90933B0280933A02161617066A
:1012800084F4FE013196CB01880F991F8E0F9F1FAA
:1012900021913191DA012D933D93AD01E817F907C2
:1012A000B9F78AE090E00E945427809178029091EB
:1012B000790299236CF10F2EFAE3EF2EF2E0FF2E64
:1012C000F02D00E010E00F2EF0E0CF2EF2E0DF2E48
:1012D000F02DF701819191917F0100D00F92ADB770
:1012E000BEB71296DC92CE92119714969C938E9371
:1012F00013970E9442270F5F1F4F0F900F900F9080
:101300000F908091780290917902801791070CF7E5
:101310008AE090E00E945427CA53DF4F0FB6F8943A
:10132000DEBF0FBECDBFDF91CF911F910F91FF9018
:10133000EF90DF90CF90BF90AF909F908F907F9075
:101340006F905F904F903F902F9008950E944505B9
:1013500085E565E50E9432058FEF9FE80197F1F77B
:1013600000C000000E943A0582E00E94B00486316D
:1013700068F30E943A0508950E94480585E565E5F1
:101380000E9432058FEF9FE80197F1F700C000003F
:101390000E943A0582E00E94B004863168F30E9400
:1013A0003A0508950E9445058FE56FE50E943205D4
:1013B0008FEF9FE7A6E181509040A040E1F700C089
:1013C00000000E9445058FE56FE50E94320589E91E
:1013D00099E5A1E081509040A040E1F700000E9413
:1013E0003A0582E00E94B004863158F30E943A0523
:1013F00008950E9448058FE56FE50E9432058FEF42
:101400009FE7A6E181509040A040E1F700C00000B6
:101410000E9448058FE56FE50E94320589E999E54C
:10142000A1E081509040A040E1F700000E943A0501
:1014300082E00E94B004863158F30E943A05089574
:1014400088E00E94B004809331020E94F204AC0153
:1014500090936F0280936E0282E066E023E030E0BA
:101460000E94B40180916E0290916F0285369105C1
:10147000A8F40E943A0585B18F6085B92A988FEF4C
:101480009FEFA9E581509040A040E1F700C0000027
:1014900085B18F6085B981E090E0089580E090E0AB
:1014A0000895CF92DF92EF92FF920F931F93CF9305
:1014B000DF93EE24FF2400E010E0CAE3D2E0C82E60
:1014C000DD24E0918209F09183093196EE0FFF1F30
:1014D000EC0FFD1F808191818831910554F480913A
:1014E0002C0290912D02181619061CF00E94200A59
:1014F0007C0181E0E816F104D9F40E943A0580915C
:101500002C0290912D02019690932D0280932C0233
:101510008FEF9FE7A6E181509040A040E1F700C027
:10152000000081E090E090932F0280932E02A0C1F2
:10153000AFEFB7E41197F1F700C000000E94CE04AE
:10154000EFEFF7E43197F1F700C00000809133022C
:10155000863178F090913402973158F490913202AC
:10156000973138F48DE56FE50E9432050E9437050A
:10157000BBC020913402263128F0863118F40E9435
:10158000A609B2C090913202963128F0873118F442
:101590000E94BC09A9C0903108F0A6C0803108F0B3
:1015A000A3C0203108F0A0C020918609309187099E
:1015B0002731310589F48091820990918309019640
:1015C000880F991F8C0F9D1FDC018D919C911197A5
:1015D0008431910541F56FC02530310581F480914A
:1015E0008209909183090196880F991F8C0F9D1F86
:1015F000FC01808191818130910541F55CC02130F1
:10160000310589F480918209909183090196880FB0
:10161000991F8C0F9D1FDC018D919C9111978F302C
:10162000910531F548C02131310581F4809182095D
:10163000909183090196880F991F8C0F9D1FFC01C3
:10164000808191818431910529F535C02A30310599
:1016500079F4E0918209F09183093196EE0FFF1F32
:10166000EC0FFD1F808191818730910589F523C0A2
:101670002430310579F4E0918209F09183093196A3
:10168000EE0FFF1FEC0FFD1F8081918185309105CA
:10169000F9F411C02F303105D9F4E0918209F091AD
:1016A00083093196EE0FFF1FEC0FFD1F80819181A2
:1016B0008E30910569F40E94480589E999E9A3E013
:1016C00081509040A040E1F700000E943A050CC014
:1016D0000E94450589E999E9A3E081509040A04026
:1016E000E1F700000E943A05E0918209F091830938
:1016F0003196EE0FFF1FEC0FFD1F80819181883026
:10170000910509F481C08231910509F47DC08A31C7
:10171000910509F479C08B31910509F475C0809168
:1017200033028731D8F0909134029731B8F090911C
:101730003202963198F40E9437058AE56AE50E94E4
:10174000320589E999E5A3E181509040A040E1F795
:1017500000000E943A050F5F1F4F84C08631D8F405
:10176000909134029731B8F090913202973198F00D
:101770000E9437058AE56AE50E94320589E999E504
:10178000A3E181509040A040E1F700000E943A059B
:101790000F5F1F4F67C0873108F464C08091340227
:1017A0008731B8F090913202973198F00E94370556
:1017B0008AE56AE50E94320589E999E5A3E181504D
:1017C0009040A040E1F700000E943A050F5F1F4FD4
:1017D00049C0863108F046C080913202873108F452
:1017E00041C00E9437058AE56AE50E94320589E911
:1017F00099E5A3E181509040A040E1F700000E94EC
:101800003A050F5F1F4F2EC080913302863750F18B
:1018100080913402893020F480913202893010F1B5
:1018200085B18F6085B92A988FEF9FE3A2E0815040
:101830009040A040E1F700C0000085B18F6085B9FD
:101840000E9437058AE56AE50E94320589E999E533
:10185000A3E181509040A040E1F700000E943A05CA
:101860000F5F1F4FC016D10609F02BCE0E943A051C
:10187000DF91CF911F910F91FF90EF90DF90CF906C
:101880000895EF92FF920F931F93CF93DF93809170
:101890003C0290913D0290938709809386091092B3
:1018A0002F0210922E0280917802909179021816E0
:1018B000190614F00C94F21B08E312E0C0E0D0E02B
:1018C000D0938309C093820921967801D801149698
:1018D0004D915C91159755231CF4509541955F4FA0
:1018E00082E06EE022E030E00E94B401409186097F
:1018F0005091870981E06FE022E030E00E94B4015E
:101900008091860990918709009769F4F701848195
:1019100095818230910511F00C94D31B81E00E94D7
:10192000510A0C94D31B8130910509F0AAC0D7014C
:1019300014968D919C9115978831910589F52D917B
:101940003C9111972530310591F40E94D2090E94F3
:101950003A058FEF9FE7A4E081509040A040E1F767
:1019600000C0000081E00E94510A0C94D31BD701F3
:101970002D913C9111972F30310591F40E94F90976
:101980000E943A058FEF9FE7A4E081509040A0406D
:10199000E1F700C0000081E00E94510A0C94D31BC3
:1019A00085309105C9F4D7012D913C9111972831CB
:1019B000310591F40E94F9090E943A058FEF9FE7E3
:1019C000A4E081509040A040E1F700C0000081E019
:1019D0000E94510A0C94D31B8F30910591F5D701C9
:1019E0002D913C9111972831310591F40E94D20933
:1019F0000E943A058FEF9FE7A4E081509040A040FD
:101A0000E1F700C0000081E00E94510A0C94D31B52
:101A1000D7012D913C9111972530310591F40E9409
:101A2000BC090E943A058FEF9FE7A4E081509040E7
:101A3000A040E1F700C0000081E00E94510A0C9430
:101A4000D31B8530910511F00C94D31BD7018D91D8
:101A50009C9111978F30910511F00C94D31B0E942B
:101A6000A6090E943A058FEF9FE7A4E081509040BD
:101A7000A040E1F700C0000081E00E94510A0C94F0
:101A8000D31B8230910509F036C1D70114968D9190
:101A90009C9115978330910559F42D913C911197A4
:101AA0002115310529F481E00E94510A0C94D31BC1
:101AB00084309105C1F4F701208131812115310570
:101AC00091F40E94F9090E943A058FEF9FE7A4E084
:101AD00081509040A040E1F700C0000081E00E94EA
:101AE000510A0C94D31B8E309105C9F4D7012D9166
:101AF0003C9111972115310591F40E94D2090E9461
:101B00003A058FEF9FE7A4E081509040A040E1F7B5
:101B100000C0000081E00E94510A0C94D31B009782
:101B200061F4D7012D913C9111972330310529F4AF
:101B300081E00E94510A0C94D31B84309105C1F4BA
:101B4000F701208131812330310591F40E94D209BF
:101B50000E943A058FEF9FE7A4E081509040A0409B
:101B6000E1F700C0000081E00E94510A0C94D31BF1
:101B70008E30910591F5D7012D913C91119723302D
:101B8000310591F40E94F9090E943A058FEF9FE711
:101B9000A4E081509040A040E1F700C0000081E047
:101BA0000E94510A0C94D31BD7012D913C9111979F
:101BB0002430310591F40E94A6090E943A058FEF66
:101BC0009FE7A4E081509040A040E1F700C00000F2
:101BD00081E00E94510A0C94D31B83309105C9F413
:101BE000D7012D913C9111972430310591F40E9439
:101BF000F9090E943A058FEF9FE7A4E081509040D9
:101C0000A040E1F700C0000081E00E94510A0C945E
:101C1000D31B0097C9F4D7012D913C911197243023
:101C2000310591F40E94D2090E943A058FEF9FE797
:101C3000A4E081509040A040E1F700C0000081E0A6
:101C40000E94510A0C94D31B84309105C9F4D7012A
:101C50002D913C9111972E30310591F40E94BC09D1
:101C60000E943A058FEF9FE7A4E081509040A0408A
:101C7000E1F700C0000081E00E94510A0C94D31BE0
:101C800083309105C9F4D7012D913C9111972E30E5
:101C9000310591F40E94D2090E943A058FEF9FE727
:101CA000A4E081509040A040E1F700C0000081E036
:101CB0000E94510A0C94D31B009711F00C94D31B73
:101CC000D7018D919C9111978E30910511F00C9454
:101CD000D31B0E94F9090E943A058FEF9FE7A4E009
:101CE00081509040A040E1F700C0000081E00E94D8
:101CF000510A0C94D31B8330910509F095C0D7018C
:101D000014968D919C9115978B309105C1F42D916E
:101D10003C9111972230310591F40E94F9090E94FB
:101D20003A058FEF9FE7A4E081509040A040E1F793
:101D300000C0000081E00E94510A0C94D31B853141
:101D40009105C9F4D7012D913C91119722303105AD
:101D500091F40E94D2090E943A058FEF9FE7A4E018
:101D600081509040A040E1F700C0000081E00E9457
:101D7000510A0C94D31B82309105C9F4D7012D91DF
:101D80003C9111972B30310591F40E94D2090E94A9
:101D90003A058FEF9FE7A4E081509040A040E1F723
:101DA00000C0000081E00E94510A0C94D31B8531D1
:101DB000910561F4D7012D913C9111972B3031059C
:101DC00029F481E00E94510A0C94D31B82309105C2
:101DD000C1F4F701208131812531310591F40E9450
:101DE000F9090E943A058FEF9FE7A4E081509040E7
:101DF000A040E1F700C0000081E00E94510A0C946D
:101E0000D31B8B30910511F00C94D31BD7018D910E
:101E10009C9111978531910511F00C94D31B81E0B1
:101E20000E94510A0C94D31B8430910509F0AAC07A
:101E3000F7018481958189309105B9F42081318140
:101E40002230310591F40E94D2090E943A058FEFA9
:101E50009FE7A4E081509040A040E1F700C000005F
:101E600081E00E94510A0C94D31B85309105C9F47E
:101E7000D7012D913C9111972230310591F40E94A8
:101E8000BC090E943A058FEF9FE7A4E08150904083
:101E9000A040E1F700C0000081E00E94510A0C94CC
:101EA000D31B89309105C9F4D7012D913C9111972D
:101EB0002530310591F40E94F9090E943A058FEF0F
:101EC0009FE7A4E081509040A040E1F700C00000EF
:101ED00081E00E94510A0C94D31B8230910591F548
:101EE000D7012D913C9111972530310591F40E9435
:101EF000A6090E943A058FEF9FE7A4E08150904029
:101F0000A040E1F700C0000081E00E94510A0C945B
:101F1000D31BD7012D913C9111972930310591F4B4
:101F20000E94F9090E943A058FEF9FE7A4E08150D3
:101F30009040A040E1F700C0000081E00E94510AFB
:101F40000C94D31B8530910511F00C94D31BD70151
:101F50008D919C9111978930910511F00C94D31BB0
:101F60000E94D2090E943A058FEF9FE7A4E08150BA
:101F70009040A040E1F700C0000081E00E94510ABB
:101F80000C94D31B8530910509F0ADC0D701149690
:101F90008D919C91159786309105C1F42D913C91BE
:101FA00011972430310591F40E94D2090E943A051C
:101FB0008FEF9FE7A4E081509040A040E1F700C080
:101FC000000081E00E94510A0C94D31B81309105DE
:101FD000C9F4D7012D913C9111972430310591F42A
:101FE0000E94BC090E943A058FEF9FE7A4E0815050
:101FF0009040A040E1F700C0000081E00E94510A3B
:102000000C94D31B86309105C9F4D7012D913C91D6
:1020100011972130310591F40E94F9090E943A0587
:102020008FEF9FE7A4E081509040A040E1F700C00F
:10203000000081E00E94510A0C94D31B843091056A
:1020400091F5D7012D913C9111972130310591F4F3
:102050000E94A6090E943A058FEF9FE7A4E08150F5
:102060009040A040E1F700C0000081E00E94510ACA
:102070000C94D31BD7012D913C911197263031053B
:1020800091F40E94F9090E943A058FEF9FE7A4E0BE
:1020900081509040A040E1F700C0000081E00E9424
:1020A000510A0C94D31B8130910511F00C94D31B71
:1020B000D7018D919C9111978630910511F00C9468
:1020C000D31B0E94D2090E943A058FEF9FE7A4E03C
:1020D00081509040A040E1F700C0000081E00E94E4
:1020E000510A0C94D31B8630910509F05AC0D701D0
:1020F00014968D919C9115978530910559F42D91E9
:102100003C9111972730310529F481E00E94510A52
:102110000C94D31B8730910519F5F701208131818B
:102120002530310529F481E00E94510A0C94D31B1B
:1021300020813181BFEF2F3F3B0791F40E94D209EC
:102140000E943A058FEF9FE7A4E081509040A040A5
:10215000E1F700C0000081E00E94510A0C94D31BFB
:102160008530910511F00C94D31BD7018D919C9172
:102170001197BFEF8F3F9B0711F00C94D31B0E9468
:10218000F9090E943A058FEF9FE7A4E08150904043
:10219000A040E1F700C0000081E00E94510A0C94C9
:1021A000D31B8730910509F0C3C0D70114968D91D8
:1021B0009C9115978830910519F52D913C911197B7
:1021C00026303105E9F40E94F9090E943A058FEFA3
:1021D0009FE7A4E081509040A040E1F700C00000DC
:1021E00081E00E94510A0E94370586E696EAA0E146
:1021F00081509040A040E1F70E943A050C94D31B17
:102200008A309105C9F4D7012D913C911197263060
:10221000310591F40E94D2090E943A058FEF9FE7A1
:10222000A4E081509040A040E1F700C0000081E0B0
:102230000E94510A0C94D31B8830910589F5D7016F
:102240002D913C9111972A30310551F50E943705A7
:102250008FEF9FE7A4E081509040A040E1F700C0DD
:1022600000000E943A050E94A6090E943A058FEFDD
:102270009FE7A4E081509040A040E1F700C000003B
:1022800081E00E94510A0E94370586E696EAA0E1A5
:1022900081509040A040E1F70E943A050C94D31B76
:1022A0008630910591F5D7012D913C9111972A30F7
:1022B000310591F40E94F9090E943A058FEF9FE7DA
:1022C000A4E081509040A040E1F700C0000081E010
:1022D0000E94510A0C94D31BD7012D913C91119768
:1022E0002830310591F40E94D2090E943A058FEFFF
:1022F0009FE7A4E081509040A040E1F700C00000BB
:1023000081E00E94510A0C94D31B8A30910511F090
:102310000C94D31BD7018D919C9111978830910516
:1023200011F00C94D31B81E00E94510A0C94D31B32
:1023300088309105D1F5F701848195818730910529
:10234000C1F480819181FFEF8F3F9F0791F40E943C
:10235000D2090E943A058FEF9FE7A4E08150904098
:10236000A040E1F700C0000081E00E94510A0C94F7
:10237000D31BD7018D919C9111978730910511F056
:102380000C94D31B0E94370587E56AE50E9432054D
:102390008FEF9FE7ADE081509040A040E1F700C093
:1023A00000000E943A050C94D31B8930910509F076
:1023B000ADC0D70114968D919C9115978A309105E7
:1023C000C1F42D913C9111972430310591F40E9474
:1023D000F9090E943A058FEF9FE7A4E081509040F1
:1023E000A040E1F700C0000081E00E94510A0C9477
:1023F000D31B8C309105C9F4D7012D913C911197D5
:102400002430310591F40E94A6090E943A058FEF0D
:102410009FE7A4E081509040A040E1F700C0000099
:1024200081E00E94510A0C94D31B8A309105C9F4B3
:10243000D7012D913C9111972C30310591F40E94D8
:10244000D2090E943A058FEF9FE7A4E081509040A7
:10245000A040E1F700C0000081E00E94510A0C9406
:10246000D31B8430910591F5D7012D913C911197A3
:102470002C30310591F40E94BC090E943A058FEF7F
:102480009FE7A4E081509040A040E1F700C0000029
:1024900081E00E94510A0C94D31BD7012D913C91ED
:1024A00011972A30310591F40E94A6090E943A053D
:1024B0008FEF9FE7A4E081509040A040E1F700C07B
:1024C000000081E00E94510A0C94D31B8C309105CE
:1024D00011F00C94D31BD7018D919C9111978A30E8
:1024E000910511F00C94D31B0E94F9090E943A0542
:1024F0008FEF9FE7A4E081509040A040E1F700C03B
:10250000000081E00E94510A0C94D31B8A3091058F
:1025100009F0AEC0D70114968D919C9115978D301E
:102520009105C1F42D913C9111972730310591F41B
:102530000E94A6090E943A058FEF9FE7A4E0815010
:102540009040A040E1F700C0000081E00E94510AE5
:102550000C94D31B89309105C9F4D7012D913C917E
:1025600011972730310591F40E94D2090E943A0553
:102570008FEF9FE7A4E081509040A040E1F700C0BA
:10258000000081E00E94510A0C94D31B8D3091050C
:10259000C9F4D7012D913C9111972930310591F45F
:1025A0000E94A6090E943A058FEF9FE7A4E08150A0
:1025B0009040A040E1F700C0000081E00E94510A75
:1025C0000C94D31B87309105C9F4D7012D913C9110
:1025D00011972930310591F40E94F9090E943A05BA
:1025E0008FEF9FE7A4E081509040A040E1F700C04A
:1025F000000081E00E94510A0C94D31B89309105A0
:10260000C9F4D7012D913C9111972D30310591F4EA
:102610000E94F9090E943A058FEF9FE7A4E08150DC
:102620009040A040E1F700C0000081E00E94510A04
:102630000C94D31B8730910511F00C94D31BD70158
:102640008D919C9111978D30910511F00C94D31BB5
:102650000E943A058FEF9FE7A4E081509040A04090
:10266000E1F700C0000081E00E94510A0C94D31BE6
:102670008B30910509F05FC0D70114968D919C9124
:1026800015978C30910559F42D913C911197233079
:10269000310529F481E00E94510A0C94D31B833048
:1026A0009105C9F4F70120813181FFEF2F3F3F07EA
:1026B00091F40E94D2090E943A058FEF9FE7A4E0AF
:1026C00081509040A040E1F700C0000081E00E94EE
:1026D000510A0C94D31B8C309105D1F4D7012D9164
:1026E0003C911197BFEF2F3F3B0791F40E94F909EE
:1026F0000E943A058FEF9FE7A4E081509040A040F0
:10270000E1F700C0000081E00E94510A0C94D31B45
:102710008330910511F00C94D31BD7018D919C91BE
:1027200011978C30910511F00C94D31B81E00E941D
:10273000510A0C94D31B8C30910509F0E5C0F701C8
:10274000848195818D30910551F4208131812B3028
:10275000310529F481E00E94510A0C94D31B893081
:102760009105C9F4D7012D913C9111972B3031057A
:1027700091F40E94F9090E943A058FEF9FE7A4E0C7
:1027800081509040A040E1F700C0000081E00E942D
:10279000510A0C94D31B8D309105C1F4D7012D91B2
:1027A0003C9111972930310589F40E94F9090E9462
:1027B0003A058FEF9FE7A4E081509040A040E1F7F9
:1027C00000C0000081E00E94510AEDC78B309105E6
:1027D00019F5D7012D913C9111972930310589F4D4
:1027E0000E94D2090E943A058FEF9FE7A4E0815032
:1027F0009040A040E1F700C0000081E00E94510A33
:10280000D2C7D7012D913C9111972D30310521F47C
:1028100081E00E94510AC7C789309105D9F5F701B7
:10282000208131812D30310589F40E94D2090E9426
:102830003A058FEF9FE7A4E081509040A040E1F778
:1028400000C0000081E00E94510AADC720813181A3
:10285000BFEF2F3F3B07F1F40E94D2090E943A05D7
:102860008FEF9FE7A4E081509040A040E1F700C0C7
:1028700000000E94D2090E943A058FEF9FE7A4E072
:1028800081509040A040E1F700C0000081E00E942C
:10289000510A89C78B309105C9F4D7012D913C911C
:1028A0001197BFEF2F3F3B0789F40E94D2090E9486
:1028B0003A058FEF9FE7A4E081509040A040E1F7F8
:1028C00000C0000081E00E94510A6DC78D30910563
:1028D00009F069C7D7018D919C911197BFEF8F3F88
:1028E0009B0709F060C70E94F9090E943A058FEF23
:1028F0009FE7A4E081509040A040E1F700C00000B5
:1029000081E00E94510A4FC78D30910509F071C0D6
:10291000D70114968D919C9115978A309105C1F439
:102920002D913C911197BFEF2F3F3B0789F40E94F7
:10293000F9090E943A058FEF9FE7A4E0815090408B
:10294000A040E1F700C0000081E00E94510A2BC7BF
:102950008C30910589F5D7012D913C911197BFEFEE
:102960002F3F3B0789F40E94D2090E943A058FEF5E
:102970009FE7A4E081509040A040E1F700C0000034
:1029800081E00E94510A0FC7D7012D913C91119708
:102990002A30310589F40E94D2090E943A058FEF4E
:1029A0009FE7A4E081509040A040E1F700C0000004
:1029B00081E00E94510AF7C68A30910509F0F3C6FA
:1029C000D7018D919C9111978C30910509F0EBC640
:1029D0000E94F9090E943A058FEF9FE7A4E0815019
:1029E0009040A040E1F700C0000081E00E94510A41
:1029F000DAC68E30910509F0A5C0D70114968D91E5
:102A00009C91159783319105B9F42D913C911197C3
:102A10002230310589F40E94F9090E943A058FEFAE
:102A20009FE7A4E081509040A040E1F700C0000083
:102A300081E00E94510AB7C68F309105C1F4D701D9
:102A40002D913C9111972230310589F40E94A609FD
:102A50000E943A058FEF9FE7A4E081509040A0408C
:102A6000E1F700C0000081E00E94510A9CC683315A
:102A70009105C1F4D7012D913C9111972F3031056B
:102A800089F40E94D2090E943A058FEF9FE7A4E0E3
:102A900081509040A040E1F700C0000081E00E941A
:102AA000510A81C68230910581F5D7012D913C9163
:102AB00011972F30310589F40E94BC090E943A0514
:102AC0008FEF9FE7A4E081509040A040E1F700C065
:102AD000000081E00E94510A66C6D7012D913C9109
:102AE00011972331310589F40E94D2090E943A05D9
:102AF0008FEF9FE7A4E081509040A040E1F700C035
:102B0000000081E00E94510A4EC68F30910509F005
:102B10004AC6D7018D919C9111978331910509F097
:102B200042C60E94F9090E943A058FEF9FE7A4E090
:102B300081509040A040E1F700C0000081E00E9479
:102B4000510A31C68F30910509F0C0C0D7011496E3
:102B50008D919C91159780319105B9F42D913C91FF
:102B600011972E30310589F40E94F9090E943A0527
:102B70008FEF9FE7A4E081509040A040E1F700C0B4
:102B8000000081E00E94510A0EC681309105C1F417
:102B9000D7012D913C9111972E30310589F40E9477
:102BA000A6090E943A058FEF9FE7A4E0815090406C
:102BB000A040E1F700C0000081E00E94510AF3C587
:102BC00080319105C1F4D7012D913C9111972130AD
:102BD000310589F40E94D2090E943A058FEF9FE7E0
:102BE000A4E081509040A040E1F700C0000081E0E7
:102BF0000E94510AD8C58E30910581F5D7012D91DB
:102C00003C9111972130310589F40E94BC090E9442
:102C10003A058FEF9FE7A4E081509040A040E1F794
:102C200000C0000081E00E94510ABDC5D7012D916E
:102C30003C9111972031310589F40E94D2090E94FC
:102C40003A058FEF9FE7A4E081509040A040E1F764
:102C500000C0000081E00E94510AA5C585309105A1
:102C6000C1F4D7012D913C9111972130310589F4A0
:102C70000E94F9090E943A058FEF9FE7A4E0815076
:102C80009040A040E1F700C0000081E00E94510A9E
:102C90008AC58130910509F086C5D7018D919C9137
:102CA00011978031910509F07EC50E94F9090E94B3
:102CB0003A058FEF9FE7A4E081509040A040E1F7F4
:102CC00000C0000081E00E94510A6DC5803191056D
:102CD00009F053C0D70114968D919C9115978F30B0
:102CE000910511F52D913C9111972131310521F478
:102CF00081E00E94510A57C5F70120813181FFEF21
:102D00002F3F3F0789F40E94D2090E943A058FEFB6
:102D10009FE7A4E081509040A040E1F700C0000090
:102D200081E00E94510A3FC58131910509F03BC500
:102D3000D7018D919C911197BFEF8F3F9B0789F42D
:102D40000E94F9090E943A058FEF9FE7A4E08150A5
:102D50009040A040E1F700C0000081E00E94510ACD
:102D600022C5D7018D919C9111978F30910509F063
:102D70001AC581E00E94510A16C58131910509F0FA
:102D8000B8C0F701848195818231910509F52081D0
:102D9000318120313105E1F40E94D2090E943A05C7
:102DA0008FEF9FE7A4E081509040A040E1F700C082
:102DB000000081E00E94510A0E94370586E696EAEB
:102DC000A0E181509040A040E1F70E943A05EBC499
:102DD00084319105C1F4D7012D913C911197203197
:102DE000310589F40E94F9090E943A058FEF9FE7A7
:102DF000A4E081509040A040E1F700C0000081E0D5
:102E00000E94510AD0C48231910581F5D7012D91DC
:102E10003C9111972431310549F50E9437058FEF18
:102E20009FE7A4E081509040A040E1F700C000007F
:102E30000E943A050E94BC090E943A058FEF9FE765
:102E4000A4E081509040A040E1F700C0000081E084
:102E50000E94510A0E94370586E696EAA0E1815059
:102E60009040A040E1F70E943A059DC48031910551
:102E700081F5D7012D913C9111972431310589F4C9
:102E80000E94D2090E943A058FEF9FE7A4E081508B
:102E90009040A040E1F700C0000081E00E94510A8C
:102EA00082C4D7012D913C9111972231310589F4CB
:102EB0000E94F9090E943A058FEF9FE7A4E0815034
:102EC0009040A040E1F700C0000081E00E94510A5C
:102ED0006AC48431910509F066C4D7018D919C9133
:102EE00011978231910509F05EC481E00E94510A78
:102EF0005AC482319105B9F5F701848195818131F8
:102F00009105B9F480819181FFEF8F3F9F0789F48C
:102F10000E94D2090E943A058FEF9FE7A4E08150FA
:102F20009040A040E1F700C0000081E00E94510AFB
:102F30003AC4D7018D919C9111978131910509F087
:102F400032C40E94370587E56AE50E9432058FEF9B
:102F50009FE7ADE081509040A040E1F700C0000045
:102F60000E943A0520C48331910509F0A8C0D70119
:102F700014968D919C91159786319105B9F42D91F8
:102F80003C9111972E30310589F40E94BC090E94B2
:102F90003A058FEF9FE7A4E081509040A040E1F711
:102FA00000C0000081E00E94510AFDC384319105F8
:102FB000C1F4D7012D913C9111972E30310589F440
:102FC0000E94D2090E943A058FEF9FE7A4E081504A
:102FD0009040A040E1F700C0000081E00E94510A4B
:102FE000E2C386319105C1F4D7012D913C9111972F
:102FF0002431310589F40E94D2090E943A058FEFED
:103000009FE7A4E081509040A040E1F700C000009D
:1030100081E00E94510AC7C38E309105C1F4D701E7
:103020002D913C9111972431310589F40E94BC09FE
:103030000E943A058FEF9FE7A4E081509040A040A6
:10304000E1F700C0000081E00E94510AACC3843166
:103050009105C1F4D7012D913C911197263131058D
:1030600089F40E94F9090E943A058FEF9FE7A4E0D6
:1030700081509040A040E1F700C0000081E00E9434
:10308000510A91C38E30910509F08DC3D7018D91FE
:103090009C9111978631910509F085C30E94A6097C
:1030A0000E943A058FEF9FE7A4E081509040A04036
:1030B000E1F700C0000081E00E94510A74C384312E
:1030C000910509F0A6C0D70114968D919C91159792
:1030D00087319105B9F42D913C911197213131053A
:1030E00089F40E94BC090E943A058FEF9FE7A4E093
:1030F00081509040A040E1F700C0000081E00E94B4
:10310000510A51C383319105C1F4D7012D913C91EE
:1031100011972131310589F40E94F9090E943A057D
:103120008FEF9FE7A4E081509040A040E1F700C0FE
:10313000000081E00E94510A36C387319105C1F435
:10314000D7012D913C9111972331310589F40E94CB
:10315000F9090E943A058FEF9FE7A4E08150904063
:10316000A040E1F700C0000081E00E94510A1BC3AB
:1031700081319105C1F4D7012D913C9111972331F3
:10318000310589F40E94D2090E943A058FEF9FE72A
:10319000A4E081509040A040E1F700C0000081E031
:1031A0000E94510A00C383319105C1F4D7012D91CA
:1031B0003C9111972731310589F40E94D2090E9470
:1031C0003A058FEF9FE7A4E081509040A040E1F7DF
:1031D00000C0000081E00E94510AE5C281319105E2
:1031E00009F0E1C2D7018D919C911197873191052A
:1031F00009F0D9C20E943A058FEF9FE7A4E0815001
:103200009040A040E1F700C0000081E00E94510A18
:10321000CAC28531910509F059C0D70114968D9124
:103220009C91159783309105C1F42D913C91119794
:10323000BFEF2F3F3B0789F40E94F9090E943A052E
:103240008FEF9FE7A4E081509040A040E1F700C0DD
:10325000000081E00E94510AA6C286319105C9F49E
:10326000D7012D913C911197BFEF2F3F3B0789F478
:103270000E94D2090E943A058FEF9FE7A4E0815097
:103280009040A040E1F700C0000081E00E94510A98
:103290008AC28330910559F4D7012D913C91119741
:1032A0002631310521F481E00E94510A7CC2863129
:1032B000910509F078C2F7018081918183309105F1
:1032C00009F071C281E00E94510A6DC286319105F8
:1032D00009F0EBC0D70114968D919C91159785311B
:1032E0009105C1F42D913C911197BFEF2F3F3B0702
:1032F00089F40E94F9090E943A058FEF9FE7A4E044
:1033000081509040A040E1F700C0000081E00E94A1
:10331000510A49C287319105C9F4D7012D913C91D9
:103320001197BFEF2F3F3B0789F40E94D2090E94FB
:103330003A058FEF9FE7A4E081509040A040E1F76D
:1033400000C0000081E00E94510A2DC28331910526
:1033500031F5D7012D913C911197BFEF2F3F3B07DE
:10336000F1F40E94D2090E943A058FEF9FE7A4E092
:1033700081509040A040E1F700C000000E94D209B7
:103380000E943A058FEF9FE7A4E081509040A04053
:10339000E1F700C0000081E00E94510A04C28731B9
:1033A000910559F4D7012D913C91119725313105A3
:1033B00021F481E00E94510AF6C18531910551F452
:1033C000F701208131812731310521F481E00E940C
:1033D000510AE9C187319105C1F4D7012D913C9182
:1033E00011972331310589F40E94D2090E943A05D0
:1033F0008FEF9FE7A4E081509040A040E1F700C02C
:10340000000081E00E94510ACEC185319105C1F4CE
:10341000D7012D913C9111972331310589F40E94F8
:10342000F9090E943A058FEF9FE7A4E08150904090
:10343000A040E1F700C0000081E00E94510AB3C142
:103440008331910509F0AFC1D7018D919C911197FE
:103450008731910589F40E94F9090E943A058FEF9E
:103460009FE7A4E081509040A040E1F700C0000039
:1034700081E00E94510A97C1D7018D919C911197CB
:103480008531910509F08FC10E94D2090E943A0549
:103490008FEF9FE7A4E081509040A040E1F700C08B
:1034A000000081E00E94510A7EC18731910509F038
:1034B00071C0D70114968D919C9115978631910515
:1034C000B9F42D913C9111972431310589F40E9472
:1034D000F9090E943A058FEF9FE7A4E081509040E0
:1034E000A040E1F700C0000081E00E94510A5BC1EA
:1034F0008431910589F5D7012D913C9111972631A1
:10350000310589F40E94D2090E943A058FEF9FE7A6
:10351000A4E081509040A040E1F700C0000081E0AD
:103520000E94510A40C1D7012D913C911197BFEFE4
:103530002F3F3B0789F40E94D2090E943A058FEF82
:103540009FE7A4E081509040A040E1F700C0000058
:1035500081E00E94510A27C18631910509F023C1FB
:10356000D7018D919C911197BFEF8F3F9B0709F079
:103570001AC10E94F9090E943A058FEF9FE7A4E063
:1035800081509040A040E1F700C0000081E00E941F
:10359000510A09C188319105C1F5D70114968D9161
:1035A0009C91159789319105A9F42D913C91119722
:1035B0002130310579F48FEF9FEFACE0B2E081501C
:1035C0009040A040B040D9F700C0000081E00E94C8
:1035D000510AE9C08130910509F0E5C0D7018D910C
:1035E0009C9111978931910509F0DDC08FEF9FE71C
:1035F000A7EEB1E081509040A040B040D9F700C0A4
:10360000000081E00E94510ACEC08931910509F085
:1036100085C0D70114968D919C9115978A3191059B
:1036200011F52D913C91119728313105E1F40E945B
:10363000D2090E943A058FEF9FE7A4E081509040A5
:10364000A040E1F700C0000081E00E94510A0E9402
:10365000370586E696EAA0E181509040A040E1F768
:103660000E943A05A0C08B31910519F5D7012D9123
:103670003C91119728313105E1F40E94F9090E942B
:103680003A058FEF9FE7A4E081509040A040E1F71A
:1036900000C0000081E00E94510A0E94370586E6C2
:1036A00096EAA0E181509040A040E1F70E943A05DF
:1036B0007AC08831910509F076C0D7018D919C912F
:1036C00011978B31910589F40E94D2090E943A0525
:1036D0008FEF9FE7A4E081509040A040E1F700C049
:1036E000000081E00E94510A5EC0D7018D919C913B
:1036F00011978A31910509F056C00E94F9090E947C
:103700003A058FEF9FE7A4E081509040A040E1F799
:1037100000C0000081E00E94510A45C08B31910534
:1037200001F5D70114968D919C91159789319105DA
:10373000D1F58D919C911197BFEF8F3F9B0799F524
:103740000E94F9090E943A058FEF9FE7A4E081509B
:103750009040A040E1F700C0000081E00E94510AC3
:1037600022C08A319105F9F4D70114968D919C916C
:10377000159789319105B9F48D919C911197BFEFFF
:103780008F3F9B0781F40E94D2090E943A058FEF78
:103790009FE7A4E081509040A040E1F700C0000006
:1037A00081E00E94510A80912E0290912F02813077
:1037B0009105C1F010922F0210922E02D70114969B
:1037C0008D919C91159790938709809386090E5F40
:1037D0001F4F8091780290917902C817D90714F48D
:1037E0000C94600CDF91CF911F910F91FF90EF909F
:1037F000089580918609909187098731910509F094
:1038000052C0E0918209F0918309EE0FFF1FE85C3E
:10381000FD4F2081318124313105D9F40E943A05D0
:103820000E94370586E696E6A7E181509040A040C9
:10383000E1F70E943A058FEF9FE3ABE081509040A3
:10384000A040E1F700C000000E94BC090E943A05B8
:1038500008952631310509F0BEC00E943A050E9444
:1038600037058FEF9FEFA1E181509040A040E1F735
:1038700000C000000E943A058FEF9FE3ABE081504B
:103880009040A040E1F700C000000E94A6090E94FD
:103890003A058FEF9FE3ABE081509040A040E1F705
:1038A00000C0000008958D30910509F05DC0E091E1
:1038B0008209F0918309EE0FFF1FE85CFD4F208124
:1038C00031812A30310531F50E943A050E943705D1
:1038D0008FEF9FEFA1E181509040A040E1F700C041
:1038E00000000E943A058FEF9FE3ABE081509040CB
:1038F000A040E1F700C000000E94A6090E943A051E
:103900008FEF9FE3ABE081509040A040E1F700C013
:10391000000008952C30310509F094C00E943A054A
:103920000E9437058FEF9FE7ADE081509040A040A7
:10393000E1F700C000000E943A058FEF9FE3ABE083
:1039400081509040A040E1F700C000000E94A6090D
:103950000E943A058FEF9FE3ABE081509040A0407A
:10396000E1F700C00000089585319105A1F5E091CF
:103970008209F0918309EE0FFF1FE85CFD4F808103
:1039800091818631910509F0BDC00E943A050E94DF
:1039900037058FEF9FE7ADE081509040A040E1F701
:1039A00000C000000E943A058FEF9FE3ABE081501A
:1039B0009040A040E1F700C000000E94A6090E94CC
:1039C0003A058FEF9FE3ABE081509040A040E1F7D4
:1039D00000C0000008958C309105A1F5E0918209A6
:1039E000F0918309EE0FFF1FE85CFD4F808191810C
:1039F0008B30910509F086C00E943A050E94370578
:103A00008FEF9FE7ADE081509040A040E1F700C00C
:103A100000000E943A058FEF9FE3ABE08150904099
:103A2000A040E1F700C000000E94A6090E943A05EC
:103A30008FEF9FE3ABE081509040A040E1F700C0E2
:103A4000000008958B30910509F05CC0E091820977
:103A5000F0918309EE0FFF1FE85CFD4F808191819B
:103A60008330910531F50E943A050E9437058FEFAA
:103A70009FE7ADE081509040A040E1F700C000001A
:103A80000E943A058FEF9FE3ABE081509040A04049
:103A9000E1F700C000000E94A6090E943A058FEFDE
:103AA0009FE3ABE081509040A040E1F700C00000F0
:103AB00008958C30910531F50E943A050E94370532
:103AC0008FEF9FE7ADE081509040A040E1F700C04C
:103AD00000000E943A058FEF9FE3ABE081509040D9
:103AE000A040E1F700C000000E94BC090E943A0516
:103AF0008FEF9FE3ABE081509040A040E1F700C022
:103B0000000008950E943A050E9437058FEF9FE755
:103B1000ADE081509040A040E1F700C000000E945D
:103B20003A058FEF9FE3ABE081509040A040E1F772
:103B300000C0000008958091860990918709863021
:103B4000910521F50E943A050E94370586E696EE1A
:103B5000A9E081509040A040E1F70E943A058FEF24
:103B60009FE7A4E081509040A040E1F700C0000032
:103B70000E94A6090E943A058FEF9FE7A4E08150BA
:103B80009040A040E1F700C0000008958031910509
:103B900029F50E943A050E94370582E393EBABE0DA
:103BA00081509040A040E1F700C000C00E943A055B
:103BB0008FEF9FE7A4E081509040A040E1F700C064
:103BC00000000E94A6090E943A058FEF9FE7A4E03B
:103BD00081509040A040E1F700C0000008958FEFB1
:103BE0009FE7A4E081509040A040E1F700C00000B2
:103BF0000E943C058FEF9FE7ADE081509040A040D0
:103C0000E1F700C000000E943A058FEF9FE7A4E0B3
:103C100081509040A040E1F700C0000008958FEF70
:103C20009FE7A4E081509040A040E1F700C0000071
:103C30000E943C058FEF9FE7ADE081509040A0408F
:103C4000E1F700C000000E943A058FEF9FE7A4E073
:103C500081509040A040E1F700C00000089587E542
:103C600080932A0280918609909187098B30910573
:103C700009F04DC0E0917802F0917902EE0FFF1F3C
:103C8000E85CFD4F808191818330910571F40E9441
:103C9000D2098FEF9FE7A4E081509040A040E1F768
:103CA00000C000000E94A60905C08C30910511F4E7
:103CB0000E94F9098FEF9FE3ABE081509040A04054
:103CC000E1F700C000000E94F91B0E94A6090E94B3
:103CD0001C03823539F480932A020E94CA050E948F
:103CE000EF1D0895873439F480932A020E94CA0593
:103CF0000E94EF1D0895823439F480932A020E94B5
:103D0000CA050E94EF1D08950E94EF1D08958C3092
:103D10009105B9F5E0917802F0917902EE0FFF1F5D
:103D2000E85CFD4F808191818B30910519F40E94F0
:103D3000D20905C08D30910511F40E94F9090E9445
:103D4000F91B0E941C03823539F480932A020E94D9
:103D5000CA050E94EF1D0895873439F480932A0222
:103D60000E94CA050E94EF1D0895823439F48093A1
:103D70002A020E94CA050E94EF1D08950E94EF1DAD
:103D800008958D309105B9F5E0917802F0917902AE
:103D9000EE0FFF1FE85CFD4F808191818C30910513
:103DA00019F40E94D20905C08A30910511F40E94CD
:103DB000A6090E94F91B0E941C03823539F48093E6
:103DC0002A020E94CA050E94EF1D0895873439F423
:103DD00080932A020E94CA050E94EF1D0895823432
:103DE00039F480932A020E94CA050E94EF1D0895AB
:103DF0000E94EF1D089585319105A1F5E0917802AB
:103E0000F0917902EE0FFF1FE85CFD4F80819181F8
:103E10008330910519F40E94F90902C00E94D20969
:103E20000E94F91B0E941C03823539F480932A02F8
:103E30000E94CA050E94EF1D0895873439F48093CB
:103E40002A020E94CA050E94EF1D0895823439F4A7
:103E500080932A020E94CA050E94EF1D08950E94C5
:103E6000EF1D089586319105B9F5E0917802F09142
:103E70007902EE0FFF1FE85CFD4F80819181853153
:103E8000910519F40E94F90905C08731910511F4D3
:103E90000E94D2090E94F91B0E941C03823539F44A
:103EA00080932A020E94CA050E94EF1D089587345C
:103EB00039F480932A020E94CA050E94EF1D0895DA
:103EC000823439F480932A020E94CA050E94EF1DB1
:103ED00008950E94EF1D089587319105B1F5E09195
:103EE0007802F0917902EE0FFF1FE85CFD4F8081B0
:103EF00091818631910519F40E94F90905C0843138
:103F0000910511F40E94BC090E94F91B0E941C0338
:103F1000823539F480932A020E94CA050E94EF1D5F
:103F20000895873439F480932A020E94CA050E94BA
:103F3000EF1D0895823439F480932A020E94CA0545
:103F40000E94EF1D08950E94EF1D0895CF93DF9307
:103F5000EC0180918609909187098031910579F073
:103F6000E0918209F0918309EE0FFF1FE45CFD4FA1
:103F7000208131812031310509F0A8C016C0E091BF
:103F80008209F0918309EE0FFF1FE45CFD4F8081F1
:103F900091818131910519F40E94F90934C08F3063
:103FA000910589F50E94D2092EC08F30910571F4D8
:103FB0000E94F9090E9448058FEF9FEFA3E281500C
:103FC0009040A040E1F700C000001DC08131910584
:103FD000D1F4E0918209F0918309EE0FFF1FE45CB8
:103FE000FD4F808191818031910569F40E94D20951
:103FF0000E9445058FEF9FEFA3E281509040A040C3
:10400000E1F700C000008FEF9FE7A6E181509040EC
:10401000A040E1F700C00000609186097091870917
:1040200070936D0260936C02E0918209F0918309B4
:10403000EE0FFF1FE45CFD4F4081518150936902F8
:1040400040936802CB01880F991F860F971F9C0130
:10405000220F331F220F331F820F931FFC01EE0F1D
:10406000FF1FE40FF51FAAE7B2E0EE0FFF1FEA0FF4
:10407000FB1F11821082CA01880F991F840F951FA0
:104080009C01220F331F220F331F820F931F880FB3
:10409000991F860F971F880F991FA80FB91F1D9290
:1040A0001C92CB01BE010E942D0810922F0210928B
:1040B0002E02809168029091690290933B02809356
:1040C0003A020E94410C0E943A0506C186309105D1
:1040D00029F02630310509F098C00CC02730310591
:1040E00019F40E94D2092EC02530310559F50E94DD
:1040F000F90928C08530910581F40E94F9090E94D0
:1041000048058FEF9FEFA3E281509040A040E1F778
:1041100000C000000E943A0515C08730910591F457
:104120002630310579F40E94F9090E9448058FEF85
:104130009FEFA3E281509040A040E1F700C0000053
:104140000E943A058FEF9FE7A6E181509040A04082
:10415000E1F700C0000060918609709187097093B3
:104160006D0260936C02E0918209F0918309EE0F79
:10417000FF1FE45CFD4F40815181509369024093E1
:104180006802CB01880F991F860F971F9C01220F91
:10419000331F220F331F820F931FFC01EE0FFF1FEF
:1041A000E40FF51FAAE7B2E0EE0FFF1FEA0FFB1FB7
:1041B00011821082CA01880F991F840F951F9C01DC
:1041C000220F331F220F331F820F931F880F991F57
:1041D000860F971F880F991FA80FB91F1D921C9259
:1041E000CB01BE010E942D0810922F0210922E02C8
:1041F000809168029091690290933B0280933A0209
:104200000E94410C0E943A0567C00E94D20981E0D9
:104210000E94510A8FEF9FE7A6E181509040A04095
:10422000E1F700C0000060918609709187097093E2
:104230006D0260936C02E0918209F0918309EE0FA8
:10424000FF1FE45CFD4F4081518150936902409310
:104250006802CB01880F991F860F971F9C01220FC0
:10426000331F220F331F820F931FFC01EE0FFF1F1E
:10427000E40FF51FAAE7B2E0EE0FFF1FEA0FFB1FE6
:1042800011821082CA01880F991F840F951F9C010B
:10429000220F331F220F331F820F931F880F991F86
:1042A000860F971F880F991FA80FB91F1D921C9288
:1042B000CB01BE010E942D0810922F0210922E02F7
:1042C000809168029091690290933B0280933A0238
:1042D0000E94410C0E943A05DF91CF9108956F92A0
:1042E0007F928F929F92AF92BF92CF92DF92EF9286
:1042F000FF920F931F93CF93DF938DE190E00E9485
:10430000F80660911E0270911F0280E090E00E940A
:104310002D080E94410C0E943A0580912E02909136
:104320002F028130910561F4CEE1D2E0888199813C
:104330000E94A61F80912E0290912F020097B1F744
:1043400088249924AA24BB24CC24DD2400E010E096
:104350000F2EFEE1EF2EF2E0FF2EF02D0F2EFAE3EE
:104360006F2EF2E07F2EF02D0E942F1E80912A02E8
:10437000873569F5C801880F991FF701E80FF91F04
:104380000F5F1F4FC801880F991F8E0D9F1DDC0105
:104390006D917C91808191810E942D080E94410C39
:1043A00080912E0290912F0281309105E9F6E8016B
:1043B000CC0FDD1FCE0DDF1D888199810E94A61FC5
:1043C00080912E0290912F020097B1F7CDCF8235C8
:1043D00009F08DC0C601880F991F865E9D4FFC01B4
:1043E0006081718180918609909187090E942D08D2
:1043F0000E94410C0E943A0580912E0290912F025A
:104400008130910579F4E601CC0FDD1FC65EDD4FEA
:10441000888199810E94A61F80912E0290912F027F
:104420000097B1F7C114D104A9F48091780290915A
:1044300079020197880F991F860D971DDC018D91D8
:104440009C9111978730910519F40E94D20902C0FE
:104450000E94F9090E949B1D0E943A058FEF9FEF71
:10446000ACE281509040A040E1F700C000000E9403
:1044700024068FEF9FEFACE281509040A040E1F71F
:1044800000C000000E940F1E0894C11CD11C0F5FC9
:104490001F4F063011050CF02EC1C801880F991F5F
:1044A0008E0D9F1DDC016D917C918091860990910C
:1044B00087090E942D080E94410C0E943A058091B4
:1044C0002E0290912F028130910509F04DCFE80125
:1044D000CC0FDD1FCE0DDF1D888199810E94A61FA4
:1044E00080912E0290912F020097B1F73DCF873433
:1044F00009F08CC0C501880F991F8A5E9D4FFC0191
:104500006081718180918609909187090E942D08B0
:104510000E94410C80912E0290912F0281309105D2
:1045200079F4E501CC0FDD1FCA5EDD4F88819981EA
:104530000E94A61F80912E0290912F020097B1F742
:10454000F1E0AF16B104A9F480917802909179025C
:104550000197880F991F860D971DDC018D919C9105
:1045600011978F30910519F40E94D20902C00E9460
:10457000F9090E949B1D0E943A058FEF9FEFACE264
:1045800081509040A040E1F700C000000E94240646
:104590008FEF9FEFACE281509040A040E1F700C068
:1045A00000000E940F1E0894A11CB11C0F5F1F4F3A
:1045B000063011050CF09FC0C801880F991F8E0DA1
:1045C0009F1DDC016D917C918091860990918709F6
:1045D0000E942D080E94410C0E943A0580912E02F3
:1045E00090912F028130910509F0BECEE801CC0FE9
:1045F000DD1FCE0DDF1D888199810E94A61F80914D
:104600002E0290912F020097B1F7AECE823409F0BE
:10461000ABCEC401880F991F8E5E9D4FFC01608157
:10462000718180918609909187090E942D080E94CE
:10463000410C80912E0290912F028130910579F4E6
:10464000E401CC0FDD1FCE5EDD4F888199810E9491
:10465000A61F80912E0290912F020097B1F70E9421
:104660009B1D0E943A058FEF9FEFACE28150904076
:10467000A040E1F700C000000E9424068FEF9FEFEA
:10468000ACE281509040A040E1F700C000000E94E1
:104690000F1E0894811C911C0F5F1F4F06301105DF
:1046A00054F5C801880F991F8E0D9F1DDC016D9177
:1046B0007C9180918609909187090E942D080E9423
:1046C000410C0E943A0580912E0290912F02813078
:1046D000910509F049CEE801CC0FDD1FCE0DDF1D9D
:1046E000888199810E94A61F80912E0290912F02AD
:1046F0000097B1F739CE809186099091870960E0E3
:1047000070E00E942D080E94410C80912E02909131
:104710002F028130910551F480E090E00E94A61FA5
:1047200080912E0290912F020097B1F70E94A60966
:104730008FEF9FE7ADE081509040A040E1F700C0CF
:1047400000000E943A058FEF9FEFA9E5815090404D
:10475000A040E1F700C00000DF91CF911F910F91C1
:10476000FF90EF90DF90CF90BF90AF909F908F9091
:104770007F906F9008950E94A80582E061E00E94FA
:10478000940184E092E00E94850182E06BE00E9447
:1047900094018AE092E00E94850181E06DE00E9430
:1047A00094018FE092E00E9485010E946F210E9497
:1047B0002E04FFCF5058BB27AA270ED04DC13ED1A3
:1047C00030F043D120F031F49F3F11F41EF433C197
:1047D0000EF4E095E7FB29C1E92F4FD180F3BA171A
:1047E000620773078407950718F071F49EF567C197
:1047F0000EF4E0950B2EBA2FA02D0B01B9019001FC
:104800000C01CA01A0011124FF27591B99F0593F3F
:1048100050F4503E68F11A16F040A22F232F342F87
:104820004427585FF3CF469537952795A795F040D5
:104830005395C9F77EF41F16BA0B620B730B840BEA
:10484000BAF09150A1F0FF0FBB1F661F771F881FA2
:10485000C2F70EC0BA0F621F731F841F48F48795FA
:1048600077956795B795F7959E3F08F0B3CF9395E9
:10487000880F08F09927EE0F9795879508950CD02B
:10488000EBC0E3D040F0DAD030F021F45F3F19F014
:10489000CCC0511115C1CFC0F0D098F39923C9F302
:1048A0005523B1F3951B550BBB27AA276217730736
:1048B000840738F09F5F5F4F220F331F441FAA1FEA
:1048C000A9F333D00E2E3AF0E0E830D091505040AA
:1048D000E695001CCAF729D0FE2F27D0660F771F58
:1048E000881FBB1F261737074807AB07B0E809F03A
:1048F000BB0B802DBF01FF2793585F4F2AF09E3FCF
:10490000510568F092C0DCC05F3FECF3983EDCF3E9
:10491000869577956795B795F7959F5FC9F7880F47
:10492000911D9695879597F90895E1E0660F771F99
:10493000881FBB1F621773078407BA0720F0621B2A
:10494000730B840BBA0BEE1F88F7E095089504D023
:104950006894B111B5C0089598D088F09F5790F031
:10496000B92F9927B751A0F0D1F0660F771F881F94
:10497000991F1AF0BA95C9F712C0B13081F09FD0D3
:10498000B1E008959CC0672F782F8827B85F39F071
:10499000B93FCCF3869577956795B395D9F73EF4F3
:1049A00090958095709561957F4F8F4F9F4F08959B
:1049B000E89409C097FB3EF49095809570956195B9
:1049C0007F4F8F4F9F4F9923A9F0F92F96E9BB276F
:1049D0009395F695879577956795B795F111F8CFEB
:1049E000FAF4BB0F11F460FF1BC06F5F7F4F8F4F56
:1049F0009F4F16C0882311F096E911C0772321F04C
:104A00009EE8872F762F05C0662371F096E8862FE3
:104A100070E060E02AF09A95660F771F881FDAF73A
:104A2000880F9695879597F9089597F99F6780E87D
:104A300070E060E008959FEF80EC089500240A94F0
:104A40001616170618060906089500240A94121669
:104A50001306140605060895092E0394000C11F49C
:104A6000882352F0BB0F40F4BF2B11F460FF04C049
:104A70006F5F7F4F8F4F9F4F089557FD9058440FA2
:104A8000551F59F05F3F71F04795880F97FB991FAD
:104A900061F09F3F79F0879508951216130614066A
:104AA000551FF2CF4695F1DF08C0161617061806F7
:104AB000991FF1CF86957105610508940895E894D2
:104AC000BB2766277727CB0197F908950BD0C4CF72
:104AD000B5DF28F0BADF18F0952309F0A6CFABCFE9
:104AE0001124EECFCADFA0F3959FD1F3950F50E0CC
:104AF000551F629FF001729FBB27F00DB11D639F90
:104B0000AA27F00DB11DAA1F649F6627B00DA11D35
:104B1000661F829F2227B00DA11D621F739FB00DDB
:104B2000A11D621F839FA00D611D221F749F33274B
:104B3000A00D611D231F849F600D211D822F762FE4
:104B40006A2F11249F5750408AF0E1F088234AF0E1
:104B5000EE0FFF1FBB1F661F771F881F915050402D
:104B6000A9F79E3F510570F060CFAACF5F3FECF3ED
:104B7000983EDCF3869577956795B795F795E79519
:104B80009F5FC1F7FE2B880F911D9695879597F92A
:104B90000895FA01EE0FFF1F30962105310599F1B6
:104BA0006115710561F48038BFE39B0749F1689492
:104BB0009038810561F08038BFEF9B0741F0992361
:104BC00042F5FF3FE1053105210511F1E894089414
:104BD000E795D901AA2329F4AB2FBE2FF85FD0F3B4
:104BE00010C0FF5F70F4A695E0F7F73950F019F0A8
:104BF000FF3A38F49F779F930CD00F9007FC9058A2
:104C000008953EF018CF60E070E080E89FE30895DB
:104C10004FE79F775F934F933F932F939ED02F91B2
:104C20003F914F915F9152DF05C019F40EF0FDCE18
:104C300046CF01CF2ADFC8F39638C0F707F80F92A6
:104C4000E8942BE33AEA48EB5FE74EDF0F920F92CE
:104C50000F924DB75EB70F92C0D0E4EEF0E016D0E1
:104C60004F915F91EF91FF91E595EE1FFF1F49F086
:104C7000FE57E0684427EE0F441FFA95E1F741958F
:104C8000550B32D00F9007FE26C00895DF93CF93C7
:104C90001F930F93FF92EF92DF927B018C01689438
:104CA00005C0DA2EEF011EDFFE01E894A5912591E3
:104CB000359145915591AEF3EF018EDDFE019701DF
:104CC000A801DA9479F7DF90EF90FF900F911F9190
:104CD000CF91DF9108959B01AC0160E070E080E826
:104CE0009FE3CDCDA2CEACC0D0DEE8F39923D9F3BB
:104CF000940F511DBBF39150504094F059F088230C
:104D000032F0660F771F881F91505040C1F79E3FC9
:104D1000510544F7880F911D9695879597F9089549
:104D20005F3FACF0983E9CF0BB27869577956795E2
:104D3000B79508F4B1609395C1F7BB0F58F711F41C
:104D400060FFE8CF6F5F7F4F8F4F9F4FE3CFB8CEAD
:104D50000EF076C070CE689468CE97DEC8F39923C3
:104D6000D1F3C6F3DF93CF931F930F93FF92C92F15
:104D7000DD2788232AF02197660F771F881FDAF72F
:104D800020E030E040E85FEB9FE3883920F0803E90
:104D900030F021968F770FDDECE0F1E003C00BDD02
:104DA000E9E3F1E073DF8B01BE01EC01FB2E6F57ED
:104DB00071097595771F880B990BFCDD28E132E7A7
:104DC00041E35FE38FDEAF2D9801AE01FF900F91BD
:104DD0001F91CF91DF9100DD3FCEFA01DC01AA0FD8
:104DE000BB1F9B01AC01BF5728F422273327442760
:104DF00050781FC0B75188F4AB2F002446953795E3
:104E00002795011CA395D2F3002069F0220F331FD0
:104E1000441FB395DAF30DD0CDCC61307105A0E815
:104E20008A07B94630F49B01AC01662777278827AB
:104E30009078309621F02083318342835383089504
:104E40009F3F31F0915020F4879577956795B795FE
:104E5000880F911D9695879597F90895AA1BBB1BFE
:104E600051E107C0AA1FBB1FA617B70710F0A61B6A
:104E7000B70B881F991F5A95A9F780959095BC018B
:104E8000CD010895CF93DF93CDB7DEB7FE013696FF
:104E9000619171918091900990919109AF010E9467
:104EA0005B27DF91CF9108956091900970919109EE
:104EB0000E94782908952F923F924F925F926F92AD
:104EC0007F928F929F92AF92BF92CF92DF92EF929A
:104ED000FF920F931F93CF93DF93CDB7DEB72D973C
:104EE0000FB6F894DEBF0FBECDBF3C017D876C8747
:104EF0005A01FC0117821682838181FFC8C12E01ED
:104F00000894411C511CF3019381EC85FD8593FDB0
:104F1000859193FF8191FD87EC87882309F4B3C1C4
:104F2000853241F493FD859193FF8191FD87EC8754
:104F3000853229F490E0B3010E947829E4CFFF2460
:104F4000EE2410E01032B0F48B3269F08C3228F489
:104F5000803251F0833271F40BC08D3239F08033DE
:104F600049F411602CC01260146029C0186027C079
:104F7000106125C017FD2EC0282F20532A3098F429
:104F800016FF08C08F2D880FF82EFF0CFF0CF80EAF
:104F9000F20E15C08E2D880FE82EEE0CEE0CE80EEA
:104FA000E20E10620CC08E3221F416FD6CC110644A
:104FB00006C08C3611F4106802C0883659F4EC85AE
:104FC000FD8593FD859193FF8191FD87EC87882373
:104FD00009F0B8CF982F9554933018F09052933031
:104FE00038F424E030E0A20EB31E3FE339830FC053
:104FF000833631F0833781F0833509F05AC022C0FF
:10500000F5018081898322E030E0A20EB31E21E009
:10501000C22ED12C420114C092E0292E312C2A0C30
:105020003B1CF5018080918016FF03C06F2D70E05E
:1050300002C06FEF7FEFC4010E946D296C01510126
:105040001F7715C082E0282E312C2A0C3B1CF5015D
:105050008080918016FF03C06F2D70E002C06FEF5B
:105060007FEFC4010E9462296C011068510113FD99
:105070001CC006C080E290E0B3010E947829EA9447
:105080008E2D90E0C816D906A8F30FC0F40117FDC5
:10509000859117FF81914F0190E0B3010E9478291B
:1050A000E110EA940894C108D108C114D10471F741
:1050B000E7C0843611F0893651F5F50117FF07C0B6
:1050C00080819181A281B38124E030E008C0808199
:1050D0009181AA2797FDA095BA2F22E030E0A20E79
:1050E000B31E012F0F76B7FF08C0B095A09590951D
:1050F00081959F4FAF4FBF4F0068BC01CD01A2010A
:105100002AE030E00E94A429D82ED4183FC0853769
:1051100021F41F7E2AE030E020C0197F8F36A9F0ED
:10512000803720F4883509F0AEC00BC0803721F0FD
:10513000883709F0A8C001C0106114FF09C01460CD
:1051400007C014FF08C0166006C028E030E005C0A4
:1051500020E130E002C020E132E0F50117FF07C096
:10516000608171818281938144E050E006C060815A
:10517000718180E090E042E050E0A40EB51EA201F3
:105180000E94A429D82ED418012F0F7706FF09C03A
:105190000E7FDF1430F404FF06C002FD04C00F7E52
:1051A00002C01D2D01C01F2D802F90E004FF0CC0F8
:1051B000FE01ED0DF11D2081203311F4097E09C09F
:1051C00002FF06C01E5F05C086789070009709F048
:1051D0001F5F802E992403FD12C000FF0DC0FD2C1F
:1051E0001E1550F4FE0CF11A1E2D06C080E290E050
:1051F000B3010E9478291F5F1E15C0F304C01E155D
:1052000010F4E11A01C0EE2484FE0FC080E390E0A8
:10521000B3010E94782982FE1FC081FE03C088E589
:1052200090E010C088E790E00DC0C40186789070CF
:10523000009791F081FC02C080E201C08BE207FD83
:105240008DE290E0B3010E94782906C080E390E0EF
:10525000B3010E947829FA94DF14C0F3DA94F201C2
:10526000ED0DF11D808190E0B3010E947829DD20D1
:10527000A9F706C080E290E0B3010E947829EA9481
:10528000EE20C1F740CEF3018681978102C08FEFF7
:105290009FEF2D960FB6F894DEBF0FBECDBFDF9106
:1052A000CF911F910F91FF90EF90DF90CF90BF9023
:1052B000AF909F908F907F906F905F904F903F90B6
:1052C0002F900895FC010590615070400110D8F7AF
:1052D000809590958E0F9F1F0895FC01615070403E
:1052E00001900110D8F7809590958E0F9F1F08951B
:1052F0000F931F93CF93DF938C01EB018B8181FF81
:105300001BC082FF0DC02E813F818C819D8128179B
:10531000390764F4E881F9810193F983E88306C0D1
:10532000E885F985802F1995009731F48E819F814A
:1053300001969F838E8302C00FEF1FEFC801DF919C
:10534000CF911F910F910895FA01AA27283051F1AA
:10535000203181F1E8946F936E7F6E5F7F4F8F4FA6
:105360009F4FAF4FB1E03ED0B4E03CD0670F781F05
:10537000891F9A1FA11D680F791F8A1F911DA11DEA
:105380006A0F711D811D911DA11D20D009F4689423
:105390003F912AE0269F11243019305D3193DEF6CB
:1053A000CF010895462F4770405D4193B3E00FD081
:1053B000C9F7F6CF462F4F70405D4A3318F0495D6C
:1053C00031FD4052419302D0A9F7EACFB4E0A6954F
:1053D0009795879577956795BA95C9F70097610571
:1053E000710508959B01AC010A2E069457954795C7
:1053F00037952795BA95C9F7620F731F841F951FBC
:08540000A01D0895F894FFCFF0
:1054080025642000446973743A004E78743A004366
:105418003A001A001B0012001000060008000B00DA
:0C5428000C000D001600150017005700C6
:00000001FF
