:100000000C9472000C9493000C9493000C94930045
:100010000C9493000C9493000C9493000C94930014
:100020000C9493000C9493000C9493000C94930004
:100030000C9493000C9493000C9493000C949300F4
:100040000C9493000C9493000C9493000C949300E4
:100050000C9493000C9493000C9493000C949300D4
:100060000C9493000C9493000C9493000C949300C4
:100070000C9493000C9493000C9493000C949300B4
:100080000C9493000C9493000C9493000C949300A4
:100090000C9493000C9493000C9493000C94930094
:1000A0000C9493000C9493000C9493000C94930084
:1000B0000C9493000C9493000C9493000C94930074
:1000C0000C9493000C9493000C9493000C94930064
:1000D0000C9493000C9493000C9493000C94930054
:1000E0000C94930011241FBECFEFD1E2DEBFCDBF31
:1000F00000E00CBF12E0A0E0B2E0E4EEF1E000E0CE
:100100000BBF02C007900D92A030B107D9F712E0E3
:10011000A0E0B2E001C01D92A030B107E1F70E945B
:10012000AE000C94F0000C94000084B18FEF84B901
:1001300095B115B89AB11AB89BB18BB9089585B12C
:1001400015B885B1886185B9089585B115B885B1AF
:10015000846185B9089585B115B808950E94950008
:100160000E94AB0009B110E000711070C9B1D0E07D
:10017000C870D0704A99F6CF01151105C9F42FEF58
:100180003FEF43EB215030404040E1F700C000001A
:1001900029B1209759F022FD09C00E949F0089B122
:1001A00090E0EC01C870D07083FDF7CF0E94AB00E7
:1001B0002097C1F68FEF9FEFA3EB81509040A040B6
:1001C000E1F700C0000089B10115110531F082FD91
:1001D00004C00E94A5004C99FCCF0E94AB00C2CF86
:0401E000F894FFCFC1
:00000001FF
